{
  "_format": "hh-sol-artifact-1",
  "contractName": "StarkNetValidator",
  "sourceName": "src/chainlink/solidity/emergency/StarkNetValidator.sol",
  "abi": [
    {
      "inputs": [
        {
          "internalType": "address",
          "name": "starkNetMessaging",
          "type": "address"
        },
        {
          "internalType": "address",
          "name": "configAC",
          "type": "address"
        },
        {
          "internalType": "address",
          "name": "gasPriceL1Feed",
          "type": "address"
        },
        {
          "internalType": "address",
          "name": "source",
          "type": "address"
        },
        {
          "internalType": "uint256",
          "name": "l2Feed",
          "type": "uint256"
        },
        {
          "internalType": "uint256",
          "name": "gasEstimate",
          "type": "uint256"
        }
      ],
      "stateMutability": "nonpayable",
      "type": "constructor"
    },
    {
      "inputs": [],
      "name": "AccessForbidden",
      "type": "error"
    },
    {
      "inputs": [],
      "name": "InvalidGasPriceL1FeedAddress",
      "type": "error"
    },
    {
      "inputs": [],
      "name": "InvalidL2FeedAddress",
      "type": "error"
    },
    {
      "inputs": [],
      "name": "InvalidSourceAggregatorAddress",
      "type": "error"
    },
    {
      "inputs": [],
      "name": "InvalidStarkNetMessagingAddress",
      "type": "error"
    },
    {
      "anonymous": false,
      "inputs": [
        {
          "indexed": false,
          "internalType": "address",
          "name": "user",
          "type": "address"
        }
      ],
      "name": "AddedAccess",
      "type": "event"
    },
    {
      "anonymous": false,
      "inputs": [],
      "name": "CheckAccessDisabled",
      "type": "event"
    },
    {
      "anonymous": false,
      "inputs": [],
      "name": "CheckAccessEnabled",
      "type": "event"
    },
    {
      "anonymous": false,
      "inputs": [
        {
          "indexed": true,
          "internalType": "address",
          "name": "previous",
          "type": "address"
        },
        {
          "indexed": true,
          "internalType": "address",
          "name": "current",
          "type": "address"
        }
      ],
      "name": "ConfigACSet",
      "type": "event"
    },
    {
      "anonymous": false,
      "inputs": [
        {
          "indexed": false,
          "internalType": "uint256",
          "name": "gasEstimate",
          "type": "uint256"
        },
        {
          "indexed": true,
          "internalType": "address",
          "name": "gasPriceL1Feed",
          "type": "address"
        }
      ],
      "name": "GasConfigSet",
      "type": "event"
    },
    {
      "anonymous": false,
      "inputs": [
        {
          "indexed": true,
          "internalType": "address",
          "name": "from",
          "type": "address"
        },
        {
          "indexed": true,
          "internalType": "address",
          "name": "to",
          "type": "address"
        }
      ],
      "name": "OwnershipTransferRequested",
      "type": "event"
    },
    {
      "anonymous": false,
      "inputs": [
        {
          "indexed": true,
          "internalType": "address",
          "name": "from",
          "type": "address"
        },
        {
          "indexed": true,
          "internalType": "address",
          "name": "to",
          "type": "address"
        }
      ],
      "name": "OwnershipTransferred",
      "type": "event"
    },
    {
      "anonymous": false,
      "inputs": [
        {
          "indexed": false,
          "internalType": "address",
          "name": "user",
          "type": "address"
        }
      ],
      "name": "RemovedAccess",
      "type": "event"
    },
    {
      "inputs": [],
      "name": "L2_UPTIME_FEED_ADDR",
      "outputs": [
        {
          "internalType": "uint256",
          "name": "",
          "type": "uint256"
        }
      ],
      "stateMutability": "view",
      "type": "function"
    },
    {
      "inputs": [],
      "name": "SELECTOR_STARK_UPDATE_STATUS",
      "outputs": [
        {
          "internalType": "uint256",
          "name": "",
          "type": "uint256"
        }
      ],
      "stateMutability": "view",
      "type": "function"
    },
    {
      "inputs": [],
      "name": "STARKNET_CROSS_DOMAIN_MESSENGER",
      "outputs": [
        {
          "internalType": "contract IStarknetMessaging",
          "name": "",
          "type": "address"
        }
      ],
      "stateMutability": "view",
      "type": "function"
    },
    {
      "inputs": [],
      "name": "acceptOwnership",
      "outputs": [],
      "stateMutability": "nonpayable",
      "type": "function"
    },
    {
      "inputs": [
        {
          "internalType": "address",
          "name": "_user",
          "type": "address"
        }
      ],
      "name": "addAccess",
      "outputs": [],
      "stateMutability": "nonpayable",
      "type": "function"
    },
    {
      "inputs": [],
      "name": "checkEnabled",
      "outputs": [
        {
          "internalType": "bool",
          "name": "",
          "type": "bool"
        }
      ],
      "stateMutability": "view",
      "type": "function"
    },
    {
      "inputs": [],
      "name": "disableAccessCheck",
      "outputs": [],
      "stateMutability": "nonpayable",
      "type": "function"
    },
    {
      "inputs": [],
      "name": "enableAccessCheck",
      "outputs": [],
      "stateMutability": "nonpayable",
      "type": "function"
    },
    {
      "inputs": [],
      "name": "getConfigAC",
      "outputs": [
        {
          "internalType": "address",
          "name": "",
          "type": "address"
        }
      ],
      "stateMutability": "view",
      "type": "function"
    },
    {
      "inputs": [],
      "name": "getGasConfig",
      "outputs": [
        {
          "components": [
            {
              "internalType": "uint256",
              "name": "gasEstimate",
              "type": "uint256"
            },
            {
              "internalType": "address",
              "name": "gasPriceL1Feed",
              "type": "address"
            }
          ],
          "internalType": "struct StarkNetValidator.GasConfig",
          "name": "",
          "type": "tuple"
        }
      ],
      "stateMutability": "view",
      "type": "function"
    },
    {
      "inputs": [],
      "name": "getSourceAggregator",
      "outputs": [
        {
          "internalType": "address",
          "name": "",
          "type": "address"
        }
      ],
      "stateMutability": "view",
      "type": "function"
    },
    {
      "inputs": [
        {
          "internalType": "address",
          "name": "_user",
          "type": "address"
        },
        {
          "internalType": "bytes",
          "name": "",
          "type": "bytes"
        }
      ],
      "name": "hasAccess",
      "outputs": [
        {
          "internalType": "bool",
          "name": "",
          "type": "bool"
        }
      ],
      "stateMutability": "view",
      "type": "function"
    },
    {
      "inputs": [],
      "name": "owner",
      "outputs": [
        {
          "internalType": "address",
          "name": "",
          "type": "address"
        }
      ],
      "stateMutability": "view",
      "type": "function"
    },
    {
      "inputs": [
        {
          "internalType": "address",
          "name": "_user",
          "type": "address"
        }
      ],
      "name": "removeAccess",
      "outputs": [],
      "stateMutability": "nonpayable",
      "type": "function"
    },
    {
      "inputs": [],
      "name": "retry",
      "outputs": [
        {
          "internalType": "bool",
          "name": "",
          "type": "bool"
        }
      ],
      "stateMutability": "nonpayable",
      "type": "function"
    },
    {
      "inputs": [
        {
          "internalType": "address",
          "name": "accessController",
          "type": "address"
        }
      ],
      "name": "setConfigAC",
      "outputs": [],
      "stateMutability": "nonpayable",
      "type": "function"
    },
    {
      "inputs": [
        {
          "internalType": "uint256",
          "name": "gasEstimate",
          "type": "uint256"
        },
        {
          "internalType": "address",
          "name": "gasPriceL1Feed",
          "type": "address"
        }
      ],
      "name": "setGasConfig",
      "outputs": [],
      "stateMutability": "nonpayable",
      "type": "function"
    },
    {
      "inputs": [
        {
          "internalType": "address",
          "name": "source",
          "type": "address"
        }
      ],
      "name": "setSourceAggregator",
      "outputs": [],
      "stateMutability": "nonpayable",
      "type": "function"
    },
    {
      "inputs": [
        {
          "internalType": "address",
          "name": "to",
          "type": "address"
        }
      ],
      "name": "transferOwnership",
      "outputs": [],
      "stateMutability": "nonpayable",
      "type": "function"
    },
    {
      "inputs": [],
      "name": "typeAndVersion",
      "outputs": [
        {
          "internalType": "string",
          "name": "",
          "type": "string"
        }
      ],
      "stateMutability": "pure",
      "type": "function"
    },
    {
      "inputs": [
        {
          "internalType": "uint256",
          "name": "",
          "type": "uint256"
        },
        {
          "internalType": "int256",
          "name": "",
          "type": "int256"
        },
        {
          "internalType": "uint256",
          "name": "",
          "type": "uint256"
        },
        {
          "internalType": "int256",
          "name": "currentAnswer",
          "type": "int256"
        }
      ],
      "name": "validate",
      "outputs": [
        {
          "internalType": "bool",
          "name": "",
          "type": "bool"
        }
      ],
      "stateMutability": "nonpayable",
      "type": "function"
    },
    {
      "inputs": [],
      "name": "withdrawFunds",
      "outputs": [],
      "stateMutability": "nonpayable",
      "type": "function"
    },
    {
      "inputs": [
        {
          "internalType": "address payable",
          "name": "recipient",
          "type": "address"
        }
      ],
      "name": "withdrawFundsTo",
      "outputs": [],
      "stateMutability": "nonpayable",
      "type": "function"
    },
    {
      "stateMutability": "payable",
      "type": "receive"
    }
  ],
  "bytecode": "0x610120604052600d60e09081526c7570646174655f73746174757360981b610100526200002c9062000189565b6080523480156200003c57600080fd5b5060405162001d4738038062001d478339810160408190526200005f91620003f2565b3380600081620000b65760405162461bcd60e51b815260206004820152601860248201527f43616e6e6f7420736574206f776e657220746f207a65726f000000000000000060448201526064015b60405180910390fd5b600080546001600160a01b0319166001600160a01b0384811691909117909155811615620000e957620000e981620001d0565b50506001805460ff60a01b1916600160a01b179055506001600160a01b0386166200012757604051635856adc160e11b815260040160405180910390fd5b8160000362000149576040516340507b9360e11b815260040160405180910390fd5b6001600160a01b03861660c05260a082905262000166836200027b565b6200017185620002db565b6200017d818562000344565b505050505050620004c2565b600080826040516020016200019f919062000461565b60408051601f1981840301815291905280516020909101209050620001c9600160fa1b826200049f565b9392505050565b336001600160a01b038216036200022a5760405162461bcd60e51b815260206004820152601760248201527f43616e6e6f74207472616e7366657220746f2073656c660000000000000000006044820152606401620000ad565b600180546001600160a01b0319166001600160a01b0383811691821790925560008054604051929316917fed8889f560326eb138920d842192f0eb3dd22b4f139c87a2c57538e05bae12789190a350565b6001600160a01b038116620002a35760405163012ba50d60e51b815260040160405180910390fd5b6003546001600160a01b039081169082168114620002d757600380546001600160a01b0319166001600160a01b0384161790555b5050565b6004546001600160a01b039081169082168114620002d757600480546001600160a01b0319166001600160a01b0384811691821790925560405190918316907f6b0ce63879b19fa36f93da30a36f44140d8c3c727b6c75a16165c2017037d2cc90600090a35050565b6001600160a01b0381166200036c5760405163694f903760e11b815260040160405180910390fd5b6040805180820182528381526001600160a01b03831660209182018190526005859055600680546001600160a01b0319168217905591518481527f12ef5f0c2f8f51c7e204101796dce749256568e643c66f68d1bfd51f2f8d29d2910160405180910390a25050565b80516001600160a01b0381168114620003ed57600080fd5b919050565b60008060008060008060c087890312156200040c57600080fd5b6200041787620003d5565b95506200042760208801620003d5565b94506200043760408801620003d5565b93506200044760608801620003d5565b92506080870151915060a087015190509295509295509295565b6000825160005b8181101562000484576020818601810151858301520162000468565b8181111562000494576000828501525b509190910192915050565b600082620004bd57634e487b7160e01b600052601260045260246000fd5b500690565b60805160a05160c051611840620005076000396000818161053f015261100a01526000818161022a01526110390152600081816102cd015261105b01526118406000f3fe6080604052600436106101845760003560e01c80638823da6c116100d6578063dc7f01241161007f578063f2fde38b11610059578063f2fde38b1461050d578063f6d637901461052d578063fae8fb2c1461056157600080fd5b8063dc7f01241461049b578063ec86b00c146104cd578063f05d42a1146104ed57600080fd5b8063a2e6e0eb116100b0578063a2e6e0eb14610430578063beed9b5114610450578063cfc6ab871461047057600080fd5b80638823da6c146103c55780638da5cb5b146103e5578063a118f2491461041057600080fd5b806324600fc3116101385780636b14daf8116101125780636b14daf81461036b57806379ba50971461039b5780638038e4a1146103b057600080fd5b806324600fc3146102a65780632eef1711146102bb5780634b5c54c0146102ef57600080fd5b80631108d587116101695780631108d587146101c7578063122555ff14610218578063181f5a771461025a57600080fd5b806302163e6c146101905780630a756983146101b257600080fd5b3661018b57005b600080fd5b34801561019c57600080fd5b506101b06101ab366004611429565b610576565b005b3480156101be57600080fd5b506101b061058a565b3480156101d357600080fd5b5060045473ffffffffffffffffffffffffffffffffffffffff165b60405173ffffffffffffffffffffffffffffffffffffffff90911681526020015b60405180910390f35b34801561022457600080fd5b5061024c7f000000000000000000000000000000000000000000000000000000000000000081565b60405190815260200161020f565b34801561026657600080fd5b50604080518082018252601781527f537461726b4e657456616c696461746f7220302e312e300000000000000000006020820152905161020f9190611446565b3480156102b257600080fd5b506101b0610609565b3480156102c757600080fd5b5061024c7f000000000000000000000000000000000000000000000000000000000000000081565b3480156102fb57600080fd5b5060408051808201825260008082526020918201528151808301909252600554825260065473ffffffffffffffffffffffffffffffffffffffff1690820152604080518251815260209283015173ffffffffffffffffffffffffffffffffffffffff16928101929092520161020f565b34801561037757600080fd5b5061038b6103863660046114e8565b610621565b604051901515815260200161020f565b3480156103a757600080fd5b506101b0610677565b3480156103bc57600080fd5b506101b0610779565b3480156103d157600080fd5b506101b06103e0366004611429565b61080d565b3480156103f157600080fd5b5060005473ffffffffffffffffffffffffffffffffffffffff166101ee565b34801561041c57600080fd5b506101b061042b366004611429565b6108c6565b34801561043c57600080fd5b506101b061044b366004611429565b61097a565b34801561045c57600080fd5b5061038b61046b3660046115ca565b61098d565b34801561047c57600080fd5b5060035473ffffffffffffffffffffffffffffffffffffffff166101ee565b3480156104a757600080fd5b5060015461038b9074010000000000000000000000000000000000000000900460ff1681565b3480156104d957600080fd5b506101b06104e8366004611429565b610a48565b3480156104f957600080fd5b506101b06105083660046115fc565b610a59565b34801561051957600080fd5b506101b0610528366004611429565b610b7c565b34801561053957600080fd5b506101ee7f000000000000000000000000000000000000000000000000000000000000000081565b34801561056d57600080fd5b5061038b610b8d565b61057e610cdf565b61058781610d60565b50565b610592610cdf565b60015474010000000000000000000000000000000000000000900460ff161561060757600180547fffffffffffffffffffffff00ffffffffffffffffffffffffffffffffffffffff1690556040517f3be8a977a014527b50ae38adda80b56911c267328965c98ddc385d248f53963890600090a15b565b610611610cdf565b334761061d8282610dfa565b5050565b73ffffffffffffffffffffffffffffffffffffffff821660009081526002602052604081205460ff1680610670575060015474010000000000000000000000000000000000000000900460ff16155b9392505050565b60015473ffffffffffffffffffffffffffffffffffffffff1633146106fd576040517f08c379a000000000000000000000000000000000000000000000000000000000815260206004820152601660248201527f4d7573742062652070726f706f736564206f776e65720000000000000000000060448201526064015b60405180910390fd5b60008054337fffffffffffffffffffffffff00000000000000000000000000000000000000008083168217845560018054909116905560405173ffffffffffffffffffffffffffffffffffffffff90921692909183917f8be0079c531659141344cd1fd0a4f28419497f9722a3daafe3b4186f6b6457e091a350565b610781610cdf565b60015474010000000000000000000000000000000000000000900460ff1661060757600180547fffffffffffffffffffffff00ffffffffffffffffffffffffffffffffffffffff16740100000000000000000000000000000000000000001790556040517faebf329500988c6488a0074e5a0a9ff304561fc5c6fc877aeb1d59c8282c348090600090a1565b610815610cdf565b73ffffffffffffffffffffffffffffffffffffffff811660009081526002602052604090205460ff16156105875773ffffffffffffffffffffffffffffffffffffffff811660008181526002602090815260409182902080547fffffffffffffffffffffffffffffffffffffffffffffffffffffffffffffff0016905590519182527f3d68a6fce901d20453d1a7aa06bf3950302a735948037deb182a8db66df2a0d191015b60405180910390a150565b6108ce610cdf565b73ffffffffffffffffffffffffffffffffffffffff811660009081526002602052604090205460ff166105875773ffffffffffffffffffffffffffffffffffffffff811660008181526002602090815260409182902080547fffffffffffffffffffffffffffffffffffffffffffffffffffffffffffffff0016600117905590519182527f87286ad1f399c8e82bf0c4ef4fcdc570ea2e1e92176e5c848b6413545b885db491016108bb565b610982610cdf565b4761061d8282610dfa565b60006109d0336000368080601f01602080910402602001604051908101604052809392919081815260200183838082843760009201919091525061062192505050565b610a36576040517f08c379a000000000000000000000000000000000000000000000000000000000815260206004820152600960248201527f4e6f20616363657373000000000000000000000000000000000000000000000060448201526064016106f4565b610a3f82610f59565b95945050505050565b610a50610cdf565b610587816110d4565b60005473ffffffffffffffffffffffffffffffffffffffff163314801590610b3b575060045473ffffffffffffffffffffffffffffffffffffffff1615801590610b3b5750600480546040517f6b14daf800000000000000000000000000000000000000000000000000000000815273ffffffffffffffffffffffffffffffffffffffff90911691636b14daf891610af891339160009136910161162c565b602060405180830381865afa158015610b15573d6000803e3d6000fd5b505050506040513d601f19601f82011682018060405250810190610b399190611696565b155b15610b72576040517fef67f5d800000000000000000000000000000000000000000000000000000000815260040160405180910390fd5b61061d828261118b565b610b84610cdf565b61058781611266565b6000610bd0336000368080601f01602080910402602001604051908101604052809392919081815260200183838082843760009201919091525061062192505050565b610c36576040517f08c379a000000000000000000000000000000000000000000000000000000000815260206004820152600960248201527f4e6f20616363657373000000000000000000000000000000000000000000000060448201526064016106f4565b600354604080517ffeaf968c000000000000000000000000000000000000000000000000000000008152905160009273ffffffffffffffffffffffffffffffffffffffff169163feaf968c9160048083019260a09291908290030181865afa158015610ca6573d6000803e3d6000fd5b505050506040513d601f19601f82011682018060405250810190610cca91906116d7565b505050915050610cd981610f59565b91505090565b60005473ffffffffffffffffffffffffffffffffffffffff163314610607576040517f08c379a000000000000000000000000000000000000000000000000000000000815260206004820152601660248201527f4f6e6c792063616c6c61626c65206279206f776e65720000000000000000000060448201526064016106f4565b60045473ffffffffffffffffffffffffffffffffffffffff908116908216811461061d57600480547fffffffffffffffffffffffff00000000000000000000000000000000000000001673ffffffffffffffffffffffffffffffffffffffff84811691821790925560405190918316907f6b0ce63879b19fa36f93da30a36f44140d8c3c727b6c75a16165c2017037d2cc90600090a35050565b80471015610e64576040517f08c379a000000000000000000000000000000000000000000000000000000000815260206004820152601d60248201527f416464726573733a20696e73756666696369656e742062616c616e636500000060448201526064016106f4565b60008273ffffffffffffffffffffffffffffffffffffffff168260405160006040518083038185875af1925050503d8060008114610ebe576040519150601f19603f3d011682016040523d82523d6000602084013e610ec3565b606091505b5050905080610f54576040517f08c379a000000000000000000000000000000000000000000000000000000000815260206004820152603a60248201527f416464726573733a20756e61626c6520746f2073656e642076616c75652c207260448201527f6563697069656e74206d6179206861766520726576657274656400000000000060648201526084016106f4565b505050565b600080610f6461135b565b6040805160028082526060820183529293506000929091602083019080368337019050509050600184148082600081518110610fa257610fa2611727565b6020026020010181815250504282600181518110610fc257610fc2611727565b60209081029190910101526040517f3e3aa6c500000000000000000000000000000000000000000000000000000000815273ffffffffffffffffffffffffffffffffffffffff7f00000000000000000000000000000000000000000000000000000000000000001690633e3aa6c5908590611085907f0000000000000000000000000000000000000000000000000000000000000000907f0000000000000000000000000000000000000000000000000000000000000000908890600401611756565b604080518083038185885af11580156110a2573d6000803e3d6000fd5b50505050506040513d601f19601f820116820180604052508101906110c791906117ab565b5060019695505050505050565b73ffffffffffffffffffffffffffffffffffffffff8116611121576040517f2574a1a000000000000000000000000000000000000000000000000000000000815260040160405180910390fd5b60035473ffffffffffffffffffffffffffffffffffffffff908116908216811461061d576003805473ffffffffffffffffffffffffffffffffffffffff84167fffffffffffffffffffffffff00000000000000000000000000000000000000009091161790555050565b73ffffffffffffffffffffffffffffffffffffffff81166111d8576040517fd29f206e00000000000000000000000000000000000000000000000000000000815260040160405180910390fd5b60408051808201825283815273ffffffffffffffffffffffffffffffffffffffff831660209182018190526005859055600680547fffffffffffffffffffffffff0000000000000000000000000000000000000000168217905591518481527f12ef5f0c2f8f51c7e204101796dce749256568e643c66f68d1bfd51f2f8d29d2910160405180910390a25050565b3373ffffffffffffffffffffffffffffffffffffffff8216036112e5576040517f08c379a000000000000000000000000000000000000000000000000000000000815260206004820152601760248201527f43616e6e6f74207472616e7366657220746f2073656c6600000000000000000060448201526064016106f4565b600180547fffffffffffffffffffffffff00000000000000000000000000000000000000001673ffffffffffffffffffffffffffffffffffffffff83811691821790925560008054604051929316917fed8889f560326eb138920d842192f0eb3dd22b4f139c87a2c57538e05bae12789190a350565b600080600560010160009054906101000a900473ffffffffffffffffffffffffffffffffffffffff1673ffffffffffffffffffffffffffffffffffffffff1663feaf968c6040518163ffffffff1660e01b815260040160a060405180830381865afa1580156113ce573d6000803e3d6000fd5b505050506040513d601f19601f820116820180604052508101906113f291906116d7565b5050600554919350610cd992508390506117cf565b73ffffffffffffffffffffffffffffffffffffffff8116811461058757600080fd5b60006020828403121561143b57600080fd5b813561067081611407565b600060208083528351808285015260005b8181101561147357858101830151858201604001528201611457565b81811115611485576000604083870101525b50601f017fffffffffffffffffffffffffffffffffffffffffffffffffffffffffffffffe016929092016040019392505050565b7f4e487b7100000000000000000000000000000000000000000000000000000000600052604160045260246000fd5b600080604083850312156114fb57600080fd5b823561150681611407565b9150602083013567ffffffffffffffff8082111561152357600080fd5b818501915085601f83011261153757600080fd5b813581811115611549576115496114b9565b604051601f82017fffffffffffffffffffffffffffffffffffffffffffffffffffffffffffffffe0908116603f0116810190838211818310171561158f5761158f6114b9565b816040528281528860208487010111156115a857600080fd5b8260208601602083013760006020848301015280955050505050509250929050565b600080600080608085870312156115e057600080fd5b5050823594602084013594506040840135936060013592509050565b6000806040838503121561160f57600080fd5b82359150602083013561162181611407565b809150509250929050565b73ffffffffffffffffffffffffffffffffffffffff8416815260406020820152816040820152818360608301376000818301606090810191909152601f9092017fffffffffffffffffffffffffffffffffffffffffffffffffffffffffffffffe016010192915050565b6000602082840312156116a857600080fd5b8151801515811461067057600080fd5b805169ffffffffffffffffffff811681146116d257600080fd5b919050565b600080600080600060a086880312156116ef57600080fd5b6116f8866116b8565b945060208601519350604086015192506060860151915061171b608087016116b8565b90509295509295909350565b7f4e487b7100000000000000000000000000000000000000000000000000000000600052603260045260246000fd5b6000606082018583526020858185015260606040850152818551808452608086019150828701935060005b8181101561179d57845183529383019391830191600101611781565b509098975050505050505050565b600080604083850312156117be57600080fd5b505080516020909101519092909150565b6000817fffffffffffffffffffffffffffffffffffffffffffffffffffffffffffffffff048311821515161561182e577f4e487b7100000000000000000000000000000000000000000000000000000000600052601160045260246000fd5b50029056fea164736f6c634300080f000a",
  "linkReferences": {},
  "deployedLinkReferences": {}
}