{
    "_format": "hh-sol-artifact-1",
    "contractName": "StarkNetValidator",
    "sourceName": "src/chainlink/solidity/emergency/StarkNetValidator.sol",
    "abi": [
        {
            "inputs": [
                {
                    "internalType": "address",
                    "name": "starkNetMessaging",
                    "type": "address"
                },
                {
                    "internalType": "uint256",
                    "name": "l2UptimeFeedAddr",
                    "type": "uint256"
                }
            ],
            "stateMutability": "nonpayable",
            "type": "constructor"
        },
        {
            "inputs": [],
            "name": "InvalidStarkNetMessaging",
            "type": "error"
        },
        {
            "inputs": [],
            "name": "InvalidUptimeFeedAddress",
            "type": "error"
        },
        {
            "anonymous": false,
            "inputs": [
                {
                    "indexed": false,
                    "internalType": "address",
                    "name": "user",
                    "type": "address"
                }
            ],
            "name": "AddedAccess",
            "type": "event"
        },
        {
            "anonymous": false,
            "inputs": [],
            "name": "CheckAccessDisabled",
            "type": "event"
        },
        {
            "anonymous": false,
            "inputs": [],
            "name": "CheckAccessEnabled",
            "type": "event"
        },
        {
            "anonymous": false,
            "inputs": [
                {
                    "indexed": true,
                    "internalType": "address",
                    "name": "from",
                    "type": "address"
                },
                {
                    "indexed": true,
                    "internalType": "address",
                    "name": "to",
                    "type": "address"
                }
            ],
            "name": "OwnershipTransferRequested",
            "type": "event"
        },
        {
            "anonymous": false,
            "inputs": [
                {
                    "indexed": true,
                    "internalType": "address",
                    "name": "from",
                    "type": "address"
                },
                {
                    "indexed": true,
                    "internalType": "address",
                    "name": "to",
                    "type": "address"
                }
            ],
            "name": "OwnershipTransferred",
            "type": "event"
        },
        {
            "anonymous": false,
            "inputs": [
                {
                    "indexed": false,
                    "internalType": "address",
                    "name": "user",
                    "type": "address"
                }
            ],
            "name": "RemovedAccess",
            "type": "event"
        },
        {
            "inputs": [],
            "name": "L2_UPTIME_FEED_ADDR",
            "outputs": [
                {
                    "internalType": "uint256",
                    "name": "",
                    "type": "uint256"
                }
            ],
            "stateMutability": "view",
            "type": "function"
        },
        {
            "inputs": [],
            "name": "STARKNET_CROSS_DOMAIN_MESSENGER",
            "outputs": [
                {
                    "internalType": "contract IStarknetMessaging",
                    "name": "",
                    "type": "address"
                }
            ],
            "stateMutability": "view",
            "type": "function"
        },
        {
            "inputs": [],
            "name": "acceptOwnership",
            "outputs": [],
            "stateMutability": "nonpayable",
            "type": "function"
        },
        {
            "inputs": [
                {
                    "internalType": "address",
                    "name": "_user",
                    "type": "address"
                }
            ],
            "name": "addAccess",
            "outputs": [],
            "stateMutability": "nonpayable",
            "type": "function"
        },
        {
            "inputs": [],
            "name": "checkEnabled",
            "outputs": [
                {
                    "internalType": "bool",
                    "name": "",
                    "type": "bool"
                }
            ],
            "stateMutability": "view",
            "type": "function"
        },
        {
            "inputs": [],
            "name": "disableAccessCheck",
            "outputs": [],
            "stateMutability": "nonpayable",
            "type": "function"
        },
        {
            "inputs": [],
            "name": "enableAccessCheck",
            "outputs": [],
            "stateMutability": "nonpayable",
            "type": "function"
        },
        {
            "inputs": [
                {
                    "internalType": "address",
                    "name": "_user",
                    "type": "address"
                },
                {
                    "internalType": "bytes",
                    "name": "",
                    "type": "bytes"
                }
            ],
            "name": "hasAccess",
            "outputs": [
                {
                    "internalType": "bool",
                    "name": "",
                    "type": "bool"
                }
            ],
            "stateMutability": "view",
            "type": "function"
        },
        {
            "inputs": [],
            "name": "owner",
            "outputs": [
                {
                    "internalType": "address",
                    "name": "",
                    "type": "address"
                }
            ],
            "stateMutability": "view",
            "type": "function"
        },
        {
            "inputs": [
                {
                    "internalType": "address",
                    "name": "_user",
                    "type": "address"
                }
            ],
            "name": "removeAccess",
            "outputs": [],
            "stateMutability": "nonpayable",
            "type": "function"
        },
        {
            "inputs": [
                {
                    "internalType": "address",
                    "name": "to",
                    "type": "address"
                }
            ],
            "name": "transferOwnership",
            "outputs": [],
            "stateMutability": "nonpayable",
            "type": "function"
        },
        {
            "inputs": [],
            "name": "typeAndVersion",
            "outputs": [
                {
                    "internalType": "string",
                    "name": "",
                    "type": "string"
                }
            ],
            "stateMutability": "pure",
            "type": "function"
        },
        {
            "inputs": [
                {
                    "internalType": "uint256",
                    "name": "",
                    "type": "uint256"
                },
                {
                    "internalType": "int256",
                    "name": "",
                    "type": "int256"
                },
                {
                    "internalType": "uint256",
                    "name": "",
                    "type": "uint256"
                },
                {
                    "internalType": "int256",
                    "name": "currentAnswer",
                    "type": "int256"
                }
            ],
            "name": "validate",
            "outputs": [
                {
                    "internalType": "bool",
                    "name": "",
                    "type": "bool"
                }
            ],
            "stateMutability": "nonpayable",
            "type": "function"
        }
    ],
    "bytecode": "0x60c060405234801561001057600080fd5b50604051610ed3380380610ed383398101604081905261002f916101d2565b33806000816100855760405162461bcd60e51b815260206004820152601860248201527f43616e6e6f7420736574206f776e657220746f207a65726f000000000000000060448201526064015b60405180910390fd5b600080546001600160a01b0319166001600160a01b03848116919091179091558116156100b5576100b581610129565b50506001805460ff60a01b1916600160a01b179055506001600160a01b0382166100f25760405163314b2e3760e21b815260040160405180910390fd5b8060000361011357604051630c6091eb60e41b815260040160405180910390fd5b6001600160a01b0390911660805260a05261020c565b336001600160a01b038216036101815760405162461bcd60e51b815260206004820152601760248201527f43616e6e6f74207472616e7366657220746f2073656c66000000000000000000604482015260640161007c565b600180546001600160a01b0319166001600160a01b0383811691821790925560008054604051929316917fed8889f560326eb138920d842192f0eb3dd22b4f139c87a2c57538e05bae12789190a350565b600080604083850312156101e557600080fd5b82516001600160a01b03811681146101fc57600080fd5b6020939093015192949293505050565b60805160a051610c9561023e6000396000818160f301526107c401526000818161024f01526107970152610c956000f3fe608060405234801561001057600080fd5b50600436106100df5760003560e01c80638823da6c1161008c578063beed9b5111610066578063beed9b51146101ff578063dc7f012414610212578063f2fde38b14610237578063f6d637901461024a57600080fd5b80638823da6c1461019a5780638da5cb5b146101ad578063a118f249146101ec57600080fd5b80636b14daf8116100bd5780636b14daf81461016757806379ba50971461018a5780638038e4a11461019257600080fd5b80630a756983146100e4578063122555ff146100ee578063181f5a7714610128575b600080fd5b6100ec610271565b005b6101157f000000000000000000000000000000000000000000000000000000000000000081565b6040519081526020015b60405180910390f35b604080518082018252601781527f537461726b4e657456616c696461746f7220302e312e300000000000000000006020820152905161011f91906109e8565b61017a610175366004610ab3565b6102f0565b604051901515815260200161011f565b6100ec610346565b6100ec610448565b6100ec6101a8366004610b93565b6104dc565b60005473ffffffffffffffffffffffffffffffffffffffff165b60405173ffffffffffffffffffffffffffffffffffffffff909116815260200161011f565b6100ec6101fa366004610b93565b610596565b61017a61020d366004610bae565b61064a565b60015461017a9074010000000000000000000000000000000000000000900460ff1681565b6100ec610245366004610b93565b610861565b6101c77f000000000000000000000000000000000000000000000000000000000000000081565b610279610872565b60015474010000000000000000000000000000000000000000900460ff16156102ee57600180547fffffffffffffffffffffff00ffffffffffffffffffffffffffffffffffffffff1690556040517f3be8a977a014527b50ae38adda80b56911c267328965c98ddc385d248f53963890600090a15b565b73ffffffffffffffffffffffffffffffffffffffff821660009081526002602052604081205460ff168061033f575060015474010000000000000000000000000000000000000000900460ff16155b9392505050565b60015473ffffffffffffffffffffffffffffffffffffffff1633146103cc576040517f08c379a000000000000000000000000000000000000000000000000000000000815260206004820152601660248201527f4d7573742062652070726f706f736564206f776e65720000000000000000000060448201526064015b60405180910390fd5b60008054337fffffffffffffffffffffffff00000000000000000000000000000000000000008083168217845560018054909116905560405173ffffffffffffffffffffffffffffffffffffffff90921692909183917f8be0079c531659141344cd1fd0a4f28419497f9722a3daafe3b4186f6b6457e091a350565b610450610872565b60015474010000000000000000000000000000000000000000900460ff166102ee57600180547fffffffffffffffffffffff00ffffffffffffffffffffffffffffffffffffffff16740100000000000000000000000000000000000000001790556040517faebf329500988c6488a0074e5a0a9ff304561fc5c6fc877aeb1d59c8282c348090600090a1565b6104e4610872565b73ffffffffffffffffffffffffffffffffffffffff811660009081526002602052604090205460ff16156105935773ffffffffffffffffffffffffffffffffffffffff811660008181526002602090815260409182902080547fffffffffffffffffffffffffffffffffffffffffffffffffffffffffffffff0016905590519182527f3d68a6fce901d20453d1a7aa06bf3950302a735948037deb182a8db66df2a0d191015b60405180910390a15b50565b61059e610872565b73ffffffffffffffffffffffffffffffffffffffff811660009081526002602052604090205460ff166105935773ffffffffffffffffffffffffffffffffffffffff811660008181526002602090815260409182902080547fffffffffffffffffffffffffffffffffffffffffffffffffffffffffffffff0016600117905590519182527f87286ad1f399c8e82bf0c4ef4fcdc570ea2e1e92176e5c848b6413545b885db4910161058a565b600061068d336000368080601f0160208091040260200160405190810160405280939291908181526020018383808284376000920191909152506102f092505050565b6106f3576040517f08c379a000000000000000000000000000000000000000000000000000000000815260206004820152600960248201527f4e6f20616363657373000000000000000000000000000000000000000000000060448201526064016103c3565b60408051600280825260608201835260018514926000929190602083019080368337019050509050818160008151811061072f5761072f610be0565b602002602001018181525050428160018151811061074f5761074f610be0565b60209081029190910101526040517f3e3aa6c500000000000000000000000000000000000000000000000000000000815273ffffffffffffffffffffffffffffffffffffffff7f00000000000000000000000000000000000000000000000000000000000000001690633e3aa6c590610810907f0000000000000000000000000000000000000000000000000000000000000000907f038142ae23cdc38788f60223e0d361c4a67d9a841d171c3eac2e8181fbc757d3908690600401610c0f565b60408051808303816000875af115801561082e573d6000803e3d6000fd5b505050506040513d601f19601f820116820180604052508101906108529190610c64565b50600198975050505050505050565b610869610872565b610593816108f3565b60005473ffffffffffffffffffffffffffffffffffffffff1633146102ee576040517f08c379a000000000000000000000000000000000000000000000000000000000815260206004820152601660248201527f4f6e6c792063616c6c61626c65206279206f776e65720000000000000000000060448201526064016103c3565b3373ffffffffffffffffffffffffffffffffffffffff821603610972576040517f08c379a000000000000000000000000000000000000000000000000000000000815260206004820152601760248201527f43616e6e6f74207472616e7366657220746f2073656c6600000000000000000060448201526064016103c3565b600180547fffffffffffffffffffffffff00000000000000000000000000000000000000001673ffffffffffffffffffffffffffffffffffffffff83811691821790925560008054604051929316917fed8889f560326eb138920d842192f0eb3dd22b4f139c87a2c57538e05bae12789190a350565b600060208083528351808285015260005b81811015610a15578581018301518582016040015282016109f9565b81811115610a27576000604083870101525b50601f017fffffffffffffffffffffffffffffffffffffffffffffffffffffffffffffffe016929092016040019392505050565b803573ffffffffffffffffffffffffffffffffffffffff81168114610a7f57600080fd5b919050565b7f4e487b7100000000000000000000000000000000000000000000000000000000600052604160045260246000fd5b60008060408385031215610ac657600080fd5b610acf83610a5b565b9150602083013567ffffffffffffffff80821115610aec57600080fd5b818501915085601f830112610b0057600080fd5b813581811115610b1257610b12610a84565b604051601f82017fffffffffffffffffffffffffffffffffffffffffffffffffffffffffffffffe0908116603f01168101908382118183101715610b5857610b58610a84565b81604052828152886020848701011115610b7157600080fd5b8260208601602083013760006020848301015280955050505050509250929050565b600060208284031215610ba557600080fd5b61033f82610a5b565b60008060008060808587031215610bc457600080fd5b5050823594602084013594506040840135936060013592509050565b7f4e487b7100000000000000000000000000000000000000000000000000000000600052603260045260246000fd5b6000606082018583526020858185015260606040850152818551808452608086019150828701935060005b81811015610c5657845183529383019391830191600101610c3a565b509098975050505050505050565b60008060408385031215610c7757600080fd5b50508051602090910151909290915056fea164736f6c634300080f000a",
    "linkReferences": {},
    "deployedLinkReferences": {}
}